{
  "contractName": "FIRManagement",
  "abi": [
    {
      "anonymous": false,
      "inputs": [
        {
          "indexed": false,
          "internalType": "uint256",
          "name": "id",
          "type": "uint256"
        },
        {
          "indexed": false,
          "internalType": "address",
          "name": "complainant",
          "type": "address"
        }
      ],
      "name": "FIRFiled",
      "type": "event"
    },
    {
      "anonymous": false,
      "inputs": [
        {
          "indexed": false,
          "internalType": "uint256",
          "name": "id",
          "type": "uint256"
        },
        {
          "indexed": false,
          "internalType": "string",
          "name": "status",
          "type": "string"
        }
      ],
      "name": "FIRUpdated",
      "type": "event"
    },
    {
      "inputs": [],
      "name": "firCount",
      "outputs": [
        {
          "internalType": "uint256",
          "name": "",
          "type": "uint256"
        }
      ],
      "stateMutability": "view",
      "type": "function"
    },
    {
      "inputs": [
        {
          "internalType": "uint256",
          "name": "",
          "type": "uint256"
        }
      ],
      "name": "firs",
      "outputs": [
        {
          "internalType": "uint256",
          "name": "id",
          "type": "uint256"
        },
        {
          "internalType": "string",
          "name": "description",
          "type": "string"
        },
        {
          "internalType": "address",
          "name": "complainant",
          "type": "address"
        },
        {
          "internalType": "uint256",
          "name": "timestamp",
          "type": "uint256"
        },
        {
          "internalType": "string",
          "name": "status",
          "type": "string"
        }
      ],
      "stateMutability": "view",
      "type": "function"
    },
    {
      "inputs": [
        {
          "internalType": "string",
          "name": "_description",
          "type": "string"
        }
      ],
      "name": "fileFIR",
      "outputs": [],
      "stateMutability": "nonpayable",
      "type": "function"
    },
    {
      "inputs": [
        {
          "internalType": "uint256",
          "name": "_id",
          "type": "uint256"
        },
        {
          "internalType": "string",
          "name": "_status",
          "type": "string"
        }
      ],
      "name": "updateFIR",
      "outputs": [],
      "stateMutability": "nonpayable",
      "type": "function"
    },
    {
      "inputs": [
        {
          "internalType": "uint256",
          "name": "_id",
          "type": "uint256"
        }
      ],
      "name": "getFIR",
      "outputs": [
        {
          "internalType": "uint256",
          "name": "",
          "type": "uint256"
        },
        {
          "internalType": "string",
          "name": "",
          "type": "string"
        },
        {
          "internalType": "address",
          "name": "",
          "type": "address"
        },
        {
          "internalType": "uint256",
          "name": "",
          "type": "uint256"
        },
        {
          "internalType": "string",
          "name": "",
          "type": "string"
        }
      ],
      "stateMutability": "view",
      "type": "function"
    }
  ],
  "bytecode": "0x608060405234801561000f575f80fd5b50610eba8061001d5f395ff3fe608060405234801561000f575f80fd5b5060043610610055575f3560e01c8063a4de172d14610059578063c3737e231461008d578063d1c45a92146100a9578063f0a68144146100c7578063f1a5c418146100e3575b5f80fd5b610073600480360381019061006e91906106da565b610117565b6040516100849594939291906107dd565b60405180910390f35b6100a760048036038101906100a29190610968565b610273565b005b6100b16103d5565b6040516100be91906109af565b60405180910390f35b6100e160048036038101906100dc91906109c8565b6103db565b005b6100fd60048036038101906100f891906106da565b61051f565b60405161010e9594939291906107dd565b60405180910390f35b5f602052805f5260405f205f91509050805f01549080600101805461013b90610a4f565b80601f016020809104026020016040519081016040528092919081815260200182805461016790610a4f565b80156101b25780601f10610189576101008083540402835291602001916101b2565b820191905f5260205f20905b81548152906001019060200180831161019557829003601f168201915b505050505090806002015f9054906101000a900473ffffffffffffffffffffffffffffffffffffffff16908060030154908060040180546101f290610a4f565b80601f016020809104026020016040519081016040528092919081815260200182805461021e90610a4f565b80156102695780601f1061024057610100808354040283529160200191610269565b820191905f5260205f20905b81548152906001019060200180831161024c57829003601f168201915b5050505050905085565b60015f81548092919061028590610aac565b91905055506040518060a0016040528060015481526020018281526020013373ffffffffffffffffffffffffffffffffffffffff1681526020014281526020016040518060400160405280600581526020017f46696c65640000000000000000000000000000000000000000000000000000008152508152505f8060015481526020019081526020015f205f820151815f0155602082015181600101908161032d9190610c90565b506040820151816002015f6101000a81548173ffffffffffffffffffffffffffffffffffffffff021916908373ffffffffffffffffffffffffffffffffffffffff1602179055506060820151816003015560808201518160040190816103939190610c90565b509050507fa31743272cfdbfbe656daf07a61b8ebdf169b78342318d288cdc057db6d89e74600154336040516103ca929190610d5f565b60405180910390a150565b60015481565b5f821180156103ec57506001548211155b61042b576040517f08c379a000000000000000000000000000000000000000000000000000000000815260040161042290610dd0565b60405180910390fd5b5f805f8481526020019081526020015f2090503373ffffffffffffffffffffffffffffffffffffffff16816002015f9054906101000a900473ffffffffffffffffffffffffffffffffffffffff1673ffffffffffffffffffffffffffffffffffffffff16146104cf576040517f08c379a00000000000000000000000000000000000000000000000000000000081526004016104c690610e38565b60405180910390fd5b818160040190816104e09190610c90565b507fc06596f056a8ebd81203b2c15941aacc146f5713cb4f9637ffa43cba9f6aec8e8383604051610512929190610e56565b60405180910390a1505050565b5f60605f8060605f805f8881526020019081526020015f209050805f015481600101826002015f9054906101000a900473ffffffffffffffffffffffffffffffffffffffff1683600301548460040183805461057a90610a4f565b80601f01602080910402602001604051908101604052809291908181526020018280546105a690610a4f565b80156105f15780601f106105c8576101008083540402835291602001916105f1565b820191905f5260205f20905b8154815290600101906020018083116105d457829003601f168201915b5050505050935080805461060490610a4f565b80601f016020809104026020016040519081016040528092919081815260200182805461063090610a4f565b801561067b5780601f106106525761010080835404028352916020019161067b565b820191905f5260205f20905b81548152906001019060200180831161065e57829003601f168201915b50505050509050955095509550955095505091939590929450565b5f604051905090565b5f80fd5b5f80fd5b5f819050919050565b6106b9816106a7565b81146106c3575f80fd5b50565b5f813590506106d4816106b0565b92915050565b5f602082840312156106ef576106ee61069f565b5b5f6106fc848285016106c6565b91505092915050565b61070e816106a7565b82525050565b5f81519050919050565b5f82825260208201905092915050565b5f5b8381101561074b578082015181840152602081019050610730565b5f8484015250505050565b5f601f19601f8301169050919050565b5f61077082610714565b61077a818561071e565b935061078a81856020860161072e565b61079381610756565b840191505092915050565b5f73ffffffffffffffffffffffffffffffffffffffff82169050919050565b5f6107c78261079e565b9050919050565b6107d7816107bd565b82525050565b5f60a0820190506107f05f830188610705565b81810360208301526108028187610766565b905061081160408301866107ce565b61081e6060830185610705565b81810360808301526108308184610766565b90509695505050505050565b5f80fd5b5f80fd5b7f4e487b71000000000000000000000000000000000000000000000000000000005f52604160045260245ffd5b61087a82610756565b810181811067ffffffffffffffff8211171561089957610898610844565b5b80604052505050565b5f6108ab610696565b90506108b78282610871565b919050565b5f67ffffffffffffffff8211156108d6576108d5610844565b5b6108df82610756565b9050602081019050919050565b828183375f83830152505050565b5f61090c610907846108bc565b6108a2565b90508281526020810184848401111561092857610927610840565b5b6109338482856108ec565b509392505050565b5f82601f83011261094f5761094e61083c565b5b813561095f8482602086016108fa565b91505092915050565b5f6020828403121561097d5761097c61069f565b5b5f82013567ffffffffffffffff81111561099a576109996106a3565b5b6109a68482850161093b565b91505092915050565b5f6020820190506109c25f830184610705565b92915050565b5f80604083850312156109de576109dd61069f565b5b5f6109eb858286016106c6565b925050602083013567ffffffffffffffff811115610a0c57610a0b6106a3565b5b610a188582860161093b565b9150509250929050565b7f4e487b71000000000000000000000000000000000000000000000000000000005f52602260045260245ffd5b5f6002820490506001821680610a6657607f821691505b602082108103610a7957610a78610a22565b5b50919050565b7f4e487b71000000000000000000000000000000000000000000000000000000005f52601160045260245ffd5b5f610ab6826106a7565b91507fffffffffffffffffffffffffffffffffffffffffffffffffffffffffffffffff8203610ae857610ae7610a7f565b5b600182019050919050565b5f819050815f5260205f209050919050565b5f6020601f8301049050919050565b5f82821b905092915050565b5f60088302610b4f7fffffffffffffffffffffffffffffffffffffffffffffffffffffffffffffffff82610b14565b610b598683610b14565b95508019841693508086168417925050509392505050565b5f819050919050565b5f610b94610b8f610b8a846106a7565b610b71565b6106a7565b9050919050565b5f819050919050565b610bad83610b7a565b610bc1610bb982610b9b565b848454610b20565b825550505050565b5f90565b610bd5610bc9565b610be0818484610ba4565b505050565b5b81811015610c0357610bf85f82610bcd565b600181019050610be6565b5050565b601f821115610c4857610c1981610af3565b610c2284610b05565b81016020851015610c31578190505b610c45610c3d85610b05565b830182610be5565b50505b505050565b5f82821c905092915050565b5f610c685f1984600802610c4d565b1980831691505092915050565b5f610c808383610c59565b9150826002028217905092915050565b610c9982610714565b67ffffffffffffffff811115610cb257610cb1610844565b5b610cbc8254610a4f565b610cc7828285610c07565b5f60209050601f831160018114610cf8575f8415610ce6578287015190505b610cf08582610c75565b865550610d57565b601f198416610d0686610af3565b5f5b82811015610d2d57848901518255600182019150602085019450602081019050610d08565b86831015610d4a5784890151610d46601f891682610c59565b8355505b6001600288020188555050505b505050505050565b5f604082019050610d725f830185610705565b610d7f60208301846107ce565b9392505050565b7f46495220646f6573206e6f7420657869737400000000000000000000000000005f82015250565b5f610dba60128361071e565b9150610dc582610d86565b602082019050919050565b5f6020820190508181035f830152610de781610dae565b9050919050565b7f4f6e6c7920636f6d706c61696e616e742063616e2075706461746520464952005f82015250565b5f610e22601f8361071e565b9150610e2d82610dee565b602082019050919050565b5f6020820190508181035f830152610e4f81610e16565b9050919050565b5f604082019050610e695f830185610705565b8181036020830152610e7b8184610766565b9050939250505056fea264697066735822122018a801353561d210eb262d4b02f4d8125fc84c2529e279f276c04b69785eb68a64736f6c63430008150033",
  "immutableReferences": {},
  "source": "// SPDX-License-Identifier: MIT\npragma solidity ^0.8.0;\n\ncontract FIRManagement {\n    struct FIR {\n        uint id;\n        string description;\n        address complainant;\n        uint timestamp;\n        string status;\n    }\n\n    mapping(uint => FIR) public firs;\n    uint public firCount;\n\n    event FIRFiled(uint id, address complainant);\n    event FIRUpdated(uint id, string status);\n\n    function fileFIR(string memory _description) public {\n        firCount++;\n        firs[firCount] = FIR(firCount, _description, msg.sender, block.timestamp, \"Filed\");\n        emit FIRFiled(firCount, msg.sender);\n    }\n\n    function updateFIR(uint _id, string memory _status) public {\n        require(_id > 0 && _id <= firCount, \"FIR does not exist\");\n        FIR storage fir = firs[_id];\n        require(fir.complainant == msg.sender, \"Only complainant can update FIR\");\n        fir.status = _status;\n        emit FIRUpdated(_id, _status);\n    }\n\n    function getFIR(uint _id) public view returns (uint, string memory, address, uint, string memory) {\n        FIR storage fir = firs[_id];\n        return (fir.id, fir.description, fir.complainant, fir.timestamp, fir.status);\n    }\n}",
  "sourcePath": "/Users/abhinavjha/Desktop/Codes/Fir-blockchain-system/FIR-blockchain/contracts/FIRManagement.sol",
  "compiler": {
    "name": "solc",
    "version": "0.8.21+commit.d9974bed.Emscripten.clang"
  },
  "schemaVersion": "3.4.16",
  "updatedAt": "2025-02-03T17:17:41.640Z",
  "devdoc": {
    "kind": "dev",
    "methods": {},
    "version": 1
  },
  "userdoc": {
    "kind": "user",
    "methods": {},
    "version": 1
  }
}